:020000040800F2
:10000000F8100020010100084B25000857220008C5
:1000100049250008E5080008492A000800000000FA
:1000200000000000000000000000000013010008B4
:10003000510A0008000000001701000859250008B7
:100040001B0100081B0100081B0100081B01000820
:100050001B0100081B0100081B0100081B01000810
:100060001B0100081B0100081B0100081B01000800
:100070001B0100081B0100081B010008010A000801
:100080001B0100081B0100081B010008292A0008A9
:10009000352A00081B0100081B0100081B0100088D
:1000A0001B0100081B0100081B0100081B010008C0
:1000B0001B0100081B0100081B0100081B010008B0
:1000C0001B0100081B0100081B0100081B010008A0
:1000D0001B010008152A00081B0100081B0100086D
:1000E0001B0100081B0100081B010008DFF80CD0F1
:1000F00000F040FB0048004711350008F8100020D0
:100100000648804706480047FEE7FEE7FEE7FEE7B1
:10011000FEE7FEE7FEE7FEE7FEE7FEE7BB25000899
:10012000ED000008202A04DB203A21FA02F0002129
:10013000704721FA02F3D040C2F1200291400843F7
:100140001946704740EA01039B0703D009E008C93C
:10015000121F08C0042AFAD203E011F8013B00F88C
:10016000013B521EF9D27047D2B201E000F8012BD8
:10017000491EFBD270470022F6E710B513460A4627
:1001800004461946FFF7F0FF204610BDF0B480EAA0
:100190000102D40F4200B2EB410F02D202460846E0
:1001A00011464A0042D0C30DDDB2C1F3C752AD1AA9
:1001B000202D35DAC1F3160141F4000204B1524298
:1001C000C5F1200602FA06F12A411044B3EBD05FD4
:1001D00023D0C4B1012DA0EBC35009DCF0BC4FF01B
:1001E000004202EAC352DBB200F5000000F0DBB8C7
:1001F000400000F1807000EBC350A0F1807040EA35
:10020000D170490009E0490841EAC071A0EBC35030
:1002100000F50000400800EBC350F0BC00F0BAB895
:100220006142012202EB4101001BF6E7F0BC70477E
:1002300081F00041AAE780F00040A7E780EA0102D0
:1002400010B502F00043400022D04A001FD0010E3A
:1002500001EB1261C0F35600C2F3560240F40000F5
:1002600042F40002A0FB022000047F39140400D0F5
:10027000401C50EA124001D44000491EC2B20C0694
:1002800004EBD010401C4008802A02D003E000207C
:1002900010BD20F00100002900DA0020184310BD35
:1002A000420005D0C0F3C7525242914201DC002007
:1002B000704700EBC1507047C10F80EAE0700844FE
:1002C000CA079623002100F06EB89623002211463B
:1002D00000F069B800F0004220F00040C10DC0F30A
:1002E000160040F400007F2901DA002070479629AB
:1002F00003DCC1F19601C84001E096398840002A2C
:10030000F4D04042704730B50B4601460020202211
:10031000012409E021FA02F59D4205D303FA02F512
:10032000491B04FA02F52844151EA2F10102F1DC72
:1003300030BD2DE9F05F0546002092469B46884679
:100340000646814640241BE0284641464746224651
:10035000FFF7E8FE53465A46C01A914110D31146A2
:100360001846224600F018FA2D1A67EB01084F468E
:1003700022460120002100F00FFA17EB00094E4140
:10038000201EA4F10104DFDC484631462A464346DC
:10039000BDE8F09F0029A8BF7047401C490008BF76
:1003A00020F00100704710B4B0FA80FC00FA0CF0A5
:1003B00050EA010404BF10BC704749B1CCF12004DD
:1003C00021FA04F411FA0CF118BF0121214308436A
:1003D000A3EB0C01CB1D4FEA00614FEA102042BF96
:1003E000002010BC704700EBC35010440029A4BF8C
:1003F00010BC7047401C490008BF20F0010010BC31
:1004000070472DE9FE4F804681EA0300C00F0C467D
:10041000009021F0004123F00045B8EB0200A94113
:1004200005D24046214690461C460B46024623F024
:100430000040104347D0270DC7F30A00C3F30A5109
:100440000290401A019040286BDAC3F3130040F485
:10045000801B0098924620B10023D2EB030A63EB85
:100460000B0B01985946C0F14002504600F094F938
:1004700006460D4650465946019A00F09CF910EB8D
:1004800008006141002487EA115284EAE7731A43A5
:1004900040D0009A62B3019A012A4FEA075215DC54
:1004A000001B61EB02014FF0004202EA0752CDE966
:1004B0000042001C41F5801132462B4600F09CF9A9
:1004C00003B0BDE8F08F40462146F9E7001B61EB21
:1004D0000201001C41F5801300185B412018A2F5B1
:1004E000001747EB030140EAD570B6196D4111E0E2
:1004F0006D084FEA360645EAC0754FEA0752001B01
:1005000061EB0201001C41F5801149084FEA3000FF
:100510000019514132462B4603B0BDE8F04F00F0C0
:100520005CB90098012240000023D0EB020263EB8B
:10053000E073009821464FEAE074B8EB000061EBED
:100540000401E9E783F000435BE781F0004158E7ED
:100550002DE9FE4F81EA030404F0004421F000413C
:1005600000944FF0000B23F0004350EA01045ED0EA
:1005700052EA03045BD0C3F30A54C1F30A552C4476
:10058000A4F2F3340194A0FB0254C1F3130141F42B
:100590008011C3F3130343F4801301FB024400FBF7
:1005A000034E840A970A44EA815447EA8357A4FB1E
:1005B000076802958D0A05FB07854FEA932C04FB1B
:1005C0000C542705029D4FEA065847EA1637B5EB4B
:1005D00008056EEB070C870E920E47EA811742EA78
:1005E0008312A7FB0201B6EB0B0164EB00042B0D99
:1005F00043EA0C335E1844EB1C50DA465146E7FBE5
:100600000201C5F313044FEA0B3343EA14534FEAD4
:100610000432019C43EA0603A4F10C040294009CFA
:10062000CDE900B400F0E8F803B0BDE8F08F002099
:100630000146F9E72DE9F04D81EA030404F0004B8F
:1006400021F0004514464FF0000A23F0004150EA23
:10065000050220D054EA01021DD0C5F30A57024614
:10066000C5F31303C1F31300C1F30A5640F4801518
:1006700043F48013A7EB0608101BD64608F2FD389A
:1006800073EB050002D308F1010801E092185B4109
:10069000B8F1000F03DA00200146BDE8F08D00201C
:1006A0004FF48011064684460EE0171B73EB0507D6
:1006B00005D3121B63EB050306434CEA010C490802
:1006C0004FEA300092185B4150EA0107EDD152EA3F
:1006D000030012D082EA040083EA0501084305D032
:1006E000101BAB4106D20122002306E000224FF08E
:1006F000004302E06FF0010253101AEB06004CEBCE
:10070000085110EB0A0041EB0B01BDE8F04D00F081
:1007100064B8C1F30A52C1F3130140F2FF3341F44C
:1007200080119A4202DA00200146704740F23343BA
:100730009A42A2F2334202DC5242FFF7F3BC00F0CD
:100740002BB8000030B5041E71F1000404DB4FF03B
:100750000044404264EB0101141E73F1000405DB08
:100760001C464FF00043524263EB0403994208BF1A
:10077000904230BD064C074D06E0E06840F00103B2
:1007800094E8070098471034AC42F6D3FFF7B2FC68
:10079000FC3500081C360008202A04DB203A00FA49
:1007A00002F1002070479140C2F1200320FA03F3C8
:1007B000194390407047202A06DBCB17203A41FAB4
:1007C00002F043EAE07306E041FA02F3D040C2F1DE
:1007D0002002914008431946704710B5141E73F16A
:1007E000000408DA401C41F1000192185B411A43F1
:1007F00001D120F0010010BD2DE9F04D92469B463D
:1008000011B1B1FA81F202E0B0FA80F220329046E2
:10081000FFF7C2FF04460F4640EA0A0041EA0B0117
:1008200053465A46084313D0114653EA010019D0E3
:10083000C8F140025046FFF775FC05460E4650468B
:1008400059464246FFF7A8FF084305D0012004E0BF
:1008500020463946BDE8F08D0020054346EAE076A3
:100860002C4337430A986305E40AA0EB08000022F2
:10087000FD0A44EA47540A3002D500200146E9E760
:10088000010510196941DDE9084500196941BDE814
:10089000F04DA2E770B5104CA07C36281BD1E07D4E
:1008A000217D40EA0160617DA27D09040B4D41EA92
:1008B000022108436861FFF708FD0949FFF7BEFC04
:1008C0006FF00F01FFF7ECFCA861E17C012902D178
:1008D00080F00040A86170BDA80B0020100000202F
:1008E0000000B443FEE7000000B58FB000208DF893
:1008F00028009DF828104909ADF834109DF82820EB
:100900004FF6FF7101EAC222121DADF830208DF8BA
:1009100028009DF828205209ADF82C209DF82820A9
:1009200001EAC221091DADF828100121CDE9051009
:10093000BDF8342007910092BDF830200192BDF837
:100940002C200292BDF828200891CDE903206946A9
:10095000094800F0D3F908B100F0ABF8064800F000
:10096000CBFC0221044800F059F90121024800F0B3
:1009700055F90FB000BD0000600000200A4A10B514
:100980000A4B107103EBC0030C6843F8124F49681F
:1009900059600021C000083003E013795B1C13711B
:1009A000491C8842F9DC10BD10000020A80B002073
:1009B00010B58AB000210F4800F018FA002816D0B0
:1009C00007AB6A4600210B4800F021FA00280ED13F
:1009D000094C607807A9FFF7D1FFFFF75BFF0749D4
:1009E0000878401C00F001000870012020700AB057
:1009F00010BD000060000020A80B002010000020A7
:100A0000704730B590F840500124AC40C56B6C6025
:100A1000046863604368102B036803D09960006822
:100A2000C26030BD9A600068C16030BD0648016890
:100A300041F080710160054800214160016841F08A
:100A40000101016070470000FCED00E0001000E0D3
:100A500070472DE9FF410027DDE90A4600978DF830
:100A60000000FD208DF801008DF802100197100A9A
:100A70008DF803008DF804208DF80530200E8DF8D8
:100A80000600200C0C9D8DF807000297200A8DF8B7
:100A9000080003978DF809406B208DF80A608DF8E7
:100AA0000C008DF80B500D21684602F08BFCBDE860
:100AB000FF8172B6FEE700002DE9F047401AFFF70C
:100AC000FBFB224C06463146E068FFF75FFB2049FE
:100AD000E060884202DC1F49884200D9E1601E4D77
:100AE00030466968FFF7A4FBC5E901600746206945
:100AF000E968FFF7A3FB814660692969FFF79EFB60
:100B000080463946A068FFF799FB0746E1686068B0
:100B1000FFF794FB054631462068FFF78FFB294617
:100B2000FFF734FB3946FFF731FB4946FFF72EFB51
:100B30004146FFF72BFB0949884202DC08498842FD
:100B400000D90846BDE8F047FFF7C4BBBC0C002045
:100B500000803B4500803BC53C0000200000FA447B
:100B60000000FAC42DE9F041401AFFF7A5FB1A4C2A
:100B700005462946606AFFF709FB1849606288420A
:100B800002DC1749884200D96162164E2846B169D5
:100B9000FFF74EFBC6E906500146206AFFF74EFB01
:100BA0000746616AE069FFF749FB06462946A069E6
:100BB000FFF744FB3146FFF7E9FA3946FFF7E6FA5B
:100BC0000949884202DC0949884200D90846BDE843
:100BD000F041FFF77FBB0000BC0C00200000484440
:100BE000000048C43C0000200000C8430000C8C307
:100BF00008480022084907E0C3785B1CDBB2C370D9
:100C0000052B01D9C27002E00B78002BF4D00A70DA
:100C10007047000010000020A80B002090F8202052
:100C2000012A07D0022A05D0416A41F4802141629D
:100C300001207047006842690A4342610020704702
:100C4000F0B590F820500468A468012D05D0022D5D
:100C500003D0416A41F480214DE014F0406F01D18E
:100C6000E50045D5C4F301640125A5401D608D68EC
:100C70004FF4C0739DB1CE6835434E6845EAC60552
:100C8000066803EB0417F5514FF4C275076805EBCE
:100C900004150E697E51097D012905D009E00E88F1
:100CA000CD6845EA4655EBE701684E5946F4807633
:100CB0004E511179D2F805504FF4C67641EA05211C
:100CC000056806EB0416A9511178D2F801204FF4FB
:100CD000C47541EA0221026805EB04155151006810
:100CE00003EB0411425842F0010242500020F0BDD3
:100CF000416A41F4001141620120F0BD10B590F845
:100D000020300268012B07D0022B05D0416A41F444
:100D100080214162012010BDD2F8000240F00100A4
:100D2000C2F80002087D00F01F0301209840D2F8AD
:100D30001C328343C2F81C32CB69B3B9D2F80C32EF
:100D40008343C2F80C328C894B6864F31F434C69AF
:100D500002EBC404C4F840320C890B6864F31F43EF
:100D60004C6902EBC404C4F84432CB69012B16D1A0
:100D7000D2F80C320343C2F80C320C884B6864F38F
:100D80001F434C6902EBC404C4F840320C89CB68A1
:100D900064F31F434C6902EBC404C4F844328B690A
:100DA000002BD2F804320FD053EA0003C2F8043209
:100DB0000B69002BD2F8143208D00343C2F8143266
:100DC000096A012904D008E08343EFE78343F5E78C
:100DD000D2F81C120143C2F81C12D2F8000220F013
:100DE0000100C2F80002002010BD7047024600203A
:100DF00092F82030012B01D0022B05D1106821B1CF
:100E0000D0F8100000F003007047C068FAE770B532
:100E100090F82040012C05D0022C03D0416A41F407
:100E2000802128E0046809B32469A40720D04FF486
:100E3000D874056804EB01142D5915F0040595606C
:100E400005682D591AD0ED08556005682C5904F035
:100E50000204D4604FF4DA74056804EB01142E59CF
:100E600006F00F06082E0CD308250DE0E468DCE739
:100E7000416A41F400114162012070BD6D0D1560A1
:100E8000E3E72D5905F00F05156105682D59C5F3E8
:100E90000725956105682C59240C54614FF4DC72C8
:100EA000046802EB0112A4581C700468A458240AB8
:100EB0005C700468A458240C9C700468A258120E3C
:100EC000DA704FF4DE72046802EB0112A4581C7150
:100ED0000468A458240A5C710468A458240C9C710A
:100EE0000468A258120EDA71006829B1016941F054
:100EF00020010161002070BDC16841F02001C16086
:100F0000F8E70246002092F82010012901D00229BA
:100F10000CD111688A68520100D501208A6812013B
:100F200000D5401C8968C90000D5401C70472DE9D8
:100F3000F05F0546006800244669D0F80490876891
:100F4000D0F80CB0D0F810A0D0F81880F10748D035
:100F5000F90714D001218160B80703D5284600F0B5
:100F6000F9F90CE0780702D54FF4006407E0380780
:100F700002D54FF4805402E0284600F0E9F9F80564
:100F800016D529684FF480708860B80503D52846C7
:100F900000F019FA0CE0780502D544F4005407E09B
:100FA000380502D544F4804402E0284600F00AFAED
:100FB000F80316D529684FF480308860B80303D54C
:100FC000284600F002FA0CE0780302D544F400440D
:100FD00007E0380302D544F4803402E0284600F0EC
:100FE000F3F9300707D55FEACB6004D529681020F4
:100FF00044F40074C86070074FF0080707D55FEA33
:101000000B7004D52868C760284600F06FF9B00758
:1010100006D52868C068800702D0284600F067F926
:10102000700607D55FEACA6004D52968102044F429
:1010300080640861B00607D55FEA0A7004D52868A5
:101040000761284600F054F9F00606D528680069C3
:10105000800702D0284600F04CF9B00308D55FEABB
:10106000C96005D5296810204860284600F042F97B
:10107000F00307D55FEA097004D528684760284661
:1010800000F0A4F9300446D55FEA497040D5F00578
:1010900004D55FEAC87001D044F00104B00504D55E
:1010A0005FEA887001D544F00204700504D55FEA58
:1010B000487001D544F00404300529D518F0700FAC
:1010C00026D008F07000402815D006DC102809D082
:1010D00020280AD0302816D10AE050280ED06028E7
:1010E00011D10EE044F008040DE044F010040AE0D1
:1010F00044F0200407E044F0400404E044F080049D
:1011000001E044F480742868816921F070018161F4
:10111000296804204860002C05D0686A2043686272
:101120002846FFF762FEBDE8F09F70B5040003D0CB
:1011300094F8200010B104E0012070BD204600F0BA
:1011400081F82068016841F00101016000F00AFBAC
:101150000546052604E000F005FB401B0A2811D8CF
:1011600020684068C007F6D02068016821F00201BD
:10117000016000F0F7FA05460BE000F0F3FA401BBF
:101180000A2806D9606A40F40030606284F8206062
:10119000D2E7206840688007EFD4207E01282068CD
:1011A00001683DD021F080010160607E0128206847
:1011B000016838D021F040010160A07E012820683C
:1011C000016833D021F020010160E07E0128206811
:1011D00001682ED041F010010160207F01282068B5
:1011E000016829D021F008010160607F0128206892
:1011F000016824D021F004010160D4E90201084310
:10120000D4E90412114308436168491E0843216868
:10121000C86100206062012084F82000002070BDB9
:1012200041F08001C0E741F04001C5E741F02001F5
:10123000CAE721F01001CFE741F00801D4E741F0FF
:101240000401D9E710B586B0002100910191029107
:1012500003910068214988423DD12148C16941F08C
:101260000071C161C16901F000710491816941F0AF
:101270000801816180691B4C00F0080004904FF464
:1012800080700090012002906946204600F074F9B9
:1012900060150090022001900320039069462046CB
:1012A00000F06AF91048416821F4C04141F0E06162
:1012B00041F48041416000221146132000F0BEFA43
:1012C000132000F0ADFA00221146142000F0B6FA07
:1012D000142000F0A5FA06B010BD00000064004024
:1012E00000100240000C01400000014070477047B0
:1012F000704770477047000070B5044690F82000B2
:10130000012804D0606A40F40020606218E00220E6
:1013100084F820002068016821F00101016000F0DC
:1013200021FA05460EE000BF00F01CFA401B0A2817
:1013300008D9606A40F400306062052084F820001B
:10134000012070BD20684068C007EDD1606270BDAB
:101350007047000038B5194991F84221002A10D091
:1013600091F84121521CD2B281F8412191F84031CB
:101370009A4207D201EB421101F118026B46FFF7C6
:101380005FFC38BD0E48052390F84521521CB2FB86
:10139000F3F403FB142280F8452190F84721521EF4
:1013A00012F0FF0280F8472103D0BDE8384002F078
:1013B00013B8002081F8420138BD0000640A002003
:1013C0001C0900207047704770477047704710B580
:1013D00090F821100022022905D00421816380F8B1
:1013E0002020012010BD01680B6823F00E030B6064
:1013F00001680B6823F001030B6090F84030C46B68
:10140000012101FA03F3636080F8211080F82020A5
:10141000104610BD10B590F821100024022903D009
:101420000421816301243DE001680A6822F00E0274
:101430000A6001680A6822F001020A601A4A01681B
:10144000914201D1012121E0174A1432914201D188
:1014500010211BE0144A2832914201D1891515E070
:10146000114A3C32914201D189140FE00E4A5032A8
:10147000914202D14FF4803108E00B4A643291422C
:1014800002D14FF4801101E04FF08071064A083A12
:101490005160012180F82110002180F82010416B5B
:1014A00001B18847204610BD0800024030B528B37E
:1014B00008C8134914221944B1FBF2F18900C16331
:1014C00010498163022141771A6843F6F0718A431B
:1014D000D0E900142143D0E902452C43214304699B
:1014E0002143446921438469214311431960002148
:1014F0004163012242770177084630BD012030BDAB
:10150000F8FFFDBF0000024070B5044690F82000CF
:10151000002501280CD0012084F8200094F82160D7
:101520000020012E06D084F820000225284670BD38
:10153000022070BD022684F82160A063206806683E
:1015400026F0010606602046FFF75BFAE06A0028F5
:101550002068016802D041F00E0106E021F004018C
:1015600001602068016841F00A010160206801689B
:1015700041F001010160D9E72DE9F84FDFF8B8919A
:101580000024A9F1040B23460F2709F1040AABF14B
:10159000040EC9E00125A5402A40AA427DD1674E2C
:1015A000D1F804C0ACEB0608B44532D014DCBCF171
:1015B000030F3AD009DCBCF1000F2AD0BCF1010FB7
:1015C0001CD0BCF1020F31D11DE0BCF1110F17D0BE
:1015D000BCF1120F2AD119E0B8F5881F19D006DC2A
:1015E000B8F5803F15D0B8F5801F1FD111E0B8F5D0
:1015F000001F0ED0B8F5041F18D10AE0CB6815E023
:10160000CB681B1D12E0CB6808330FE0CB680C33AE
:101610000CE08B682BB1012B4FF0080303D0456120
:1016200004E0042302E0056100E00023FF2A01D862
:10163000064601E000F104064FEA840501D9A5F150
:101640002005D6F8008007FA05FC28EA0C0803FA02
:1016500005F548EA0508C6F800804D68ED0062D53A
:10166000374DAE6946F00106AE61AD6924F0030660
:1016700005F001050095334D06EB050CDCF808502C
:10168000A607360F07FA06F825EA0805DFF8B8803E
:10169000404503D14FF0000817E044E0DFF8AC808C
:1016A000404502D14FF001080FE0DFF8A48040452B
:1016B00002D14FF0020808E0DFF89880404502D1DF
:1016C0004FF0030801E04FF0040808FA06F848EA72
:1016D0000508CCF808804D68D9F80060ED024D4649
:1016E00001D5164300E096432E604D68DAF800609D
:1016F000AD02554601D5164300E096432E604D6875
:10170000DBF80060AD035D4601D5164300E096436B
:101710002E604D68DEF80060ED03754601D5164376
:1017200000E096432E60641C0D682A46E5407FF475
:1017300031AFBDE8F88F000008040140000011102F
:10174000001002400000014000080140000C014070
:1017500000100140001401400AB101617047090402
:10176000FBE700000148806870470000000000208F
:1017700002488168027811448160704700000020AF
:10178000074810B5016841F010010160032000F026
:1017900075F80F2000F006F800F024F8002010BDC6
:1017A0000020024070B50D4D04464FF47A71287840
:1017B000B1FBF0F00A490968B1FBF0F000F0DCFA87
:1017C00048B9102C07D200222146501E00F036F8EE
:1017D00000206C6070BD012070BD00000000002082
:1017E0000C0000200C4808B5816941F001018161BD
:1017F000816901F001010091C16941F08051C1612D
:10180000C06900F0805000900448416821F0E06118
:1018100041F00071416008BD00100240000001402D
:10182000002809DB00F01F020121914040098000DF
:1018300000F1E020C0F8001170470000F0B40E4B3A
:101840001B680C46C3F30223C3F10705042D00D91E
:101850000425191D072901D2002300E0DB1E012603
:1018600006FA05F1491E214099409E40761E164019
:101870003143F0BC01F0FAB80CED00E0064900F08D
:10188000070208684FF6FF03184040EA0220034AA7
:1018900010430860704700000CED00E00000FA05FE
:1018A0002DE9F0470F46050061D0434E306800F047
:1018B0000700B84209D2306820F007003843306092
:1018C000306800F00700B84251D128683B4C8107CE
:1018D00012D5400703D5606840F4E0606060287866
:1018E000000703D5606840F4605060606068A968D4
:1018F00020F0F000084360602878C00728D06868AE
:10190000012810D02168022810D0890700292EDA7A
:10191000616821F0030101436160FFF723FF804606
:1019200041F288390DE021688903EFE78901EDE78D
:10193000FFF718FFA0EB0801494502D90320BDE8D5
:10194000F0876068696800F00C00B0EB810FEFD1A0
:10195000306800F00700B8420BD9306820F007006B
:1019600038433060306800F00700B84201D00120F1
:10197000E5E72878400705D56068E96820F4E0606D
:10198000084360602878000706D56068296920F45C
:10199000605040EAC100606000F038F86168084AB1
:1019A000C1F30311515CC84006490860064800684D
:1019B000FFF7F8FE0020C2E70020024000100240BE
:1019C000E23500080C00002004000020044805490E
:1019D00000684968044AC1F30221515CC84070475D
:1019E0000C00002000100240F235000804480549B0
:1019F00000684968044AC1F3C221515CC84070477D
:101A00000C00002000100240F23500080E4A516818
:101A10000E4801F00C03042B11D0082B0FD10C48F9
:101A2000C1F38343C903C05C0AD55168084AC1F3B6
:101A30004041921E515C054A5043B0FBF1F07047A3
:101A400004494843704700000010024000127A0029
:101A5000D235000800093D002DE9F84F040070D090
:101A60002078C04DC00749D06868C0F381000128C4
:101A700007D06868C0F38100022809D16868C003F4
:101A800006D52868800339D560680028E7D035E09E
:101A90006068B0F5803F0BD010B1B0F5A02F11D029
:101AA000286820F480302860286820F4802002E034
:101AB000286840F480302860606890B1FFF752FEDB
:101AC00006460AE0286840F480202860F0E700BF5E
:101AD000FFF748FE801B642873D828688003F7D579
:101AE0000CE0FFF73FFE064605E000BFFFF73AFEB9
:101AF000801B6428F0D828688003F7D420789A4E99
:101B000080074FF001094FF0000839D5686810F0E0
:101B10000C0F07D06868C0F38100022809D16868FB
:101B2000C00306D42868800714D52069012808D18D
:101B300010E02069B0B1C6F80090FFF713FE074629
:101B400005E00AE1FFF70EFEC01B0228C4D8286892
:101B50008007F7D52868616920F0F80040EAC100E5
:101B600028600DE0C6F80080FFF7FCFD074604E0A2
:101B7000FFF7F8FDC01B022823D828688007F7D498
:101B8000207800072CD57948A169D9B1C0F8009018
:101B9000FFF7E8FD074604E0FFF7E4FDC01B02285D
:101BA0000FD8686A8007F7D571484FF4FA5100687A
:101BB000B0FBF1F0009000BF0098411E0091FAD2F6
:101BC0000EE080E0C0F80080FFF7CCFD074604E09F
:101BD000FFF7C8FDC01B022875D8686A8007F7D4D4
:101BE0002078400760D5E8690027C00008D4E8697C
:101BF00040F08050E861E869012700F080500090D3
:101C00005C480168C90513D40168834641F48071BA
:101C10000160FFF7A7FD824606E000BFFFF7A2FDC7
:101C2000A0EB0A0064284ED8DBF80000C005F5D50B
:101C3000E06801280AD008B1052813D0286A20F0EE
:101C400001002862286A20F0040002E0286A40F0BF
:101C500001002862E06841F2883B98B1FFF782FDFD
:101C600082460BE0286A40F004002862EEE700BFDD
:101C7000FFF778FDA0EB0A0159455AD8286A80077A
:101C8000F6D50CE0FFF76EFD824605E0FFF76AFD32
:101C9000A0EB0A0159454CD8286A8007F6D41FB139
:101CA000E86920F08050E861E06988B36968C1F3B1
:101CB0008101022944D00228C6F8608004D0FFF7D1
:101CC00051FD044638E034E0FFF74CFD074604E0E0
:101CD000FFF748FDC01B02282BD828688001F7D4E5
:101CE000206AB0F5803F05D16868A16820F4003013
:101CF00008436860D4E908010843696821F4741155
:101D000008436860C6F86090FFF72CFD044606E0C3
:101D100025E000BFFFF726FD001B022809D8286830
:101D20008001F7D51BE000BFFFF71CFD001B022858
:101D300002D90320BDE8F88F28688001F4D40EE0B2
:101D40000128F7D06868226A00F48031914204D1FA
:101D5000616A00F47010884201D00120EAE7002097
:101D6000E8E70000001002400000424280044242C6
:101D70000C0000200070004010B5401EB0F1807FC4
:101D800001D3012010BD4FF0E02460610F216017E6
:101D900000F06CFE0020A06107202061002010BD33
:101DA000704710B504460068406994F84110C0F3CC
:101DB000C010212911D180B12068143050E8001FD3
:101DC00021F0800140E80012002AF5D1A06B08B193
:101DD000FFF7FDFA204600F097FC2068406994F870
:101DE0004210C0F38010222911D180B12068143034
:101DF00050E8001F21F0400140E80012002AF5D110
:101E0000E06B08B1FFF7E3FA204600F056FC002033
:101E100010BD7047F8B5016804460868CA684B6988
:101E200010F00F0F4FF0000559D003F0010602F437
:101E30009077374365D0C10705D0D10503D5616CD4
:101E400041F001016164410705D5D90703D0616CF8
:101E500041F002016164810705D5D90703D0616CA7
:101E600041F004016164010707D502F0200131430C
:101E700003D0616C41F008016164616C00293AD0C3
:101E8000800604D5900602D5204600F04BFC206861
:101E90004069616CC0F38010090700D460B320462C
:101EA00000F00BFC20684069400621D52068143002
:101EB00050E8001F21F0400140E80012002AF5D14F
:101EC000E06BA8B16D494163E06BFFF7A3FA00280E
:101ED00011D0E06B416B01B0BDE8F04008478306CC
:101EE0000FD593060DD52046BDE8F84000F01ABC8A
:101EF0002046FFF78EFFF8BD2046FFF78AFF656496
:101F0000F8BD266B2023012E7CD1C6067AD5D606D5
:101F100078D508684868009048694FF00206400686
:101F200040D5E16B086840680004000CE8D0A28D41
:101F30008242E5D9E085886920282DD020680C30C0
:101F400050E8001F21F4807140E80012002AF5D10A
:101F50002068143050E8001F21F0010140E8001211
:101F6000002AF5D12068143050E8001F21F040010C
:101F700040E80012002AF5D184F842302563206839
:101F80000C3050E8001F21F0100140E80012002A38
:101F9000F5D1E06BFFF71BFA6663A08DE18D401A67
:101FA00081B22AE0A08DE18D401A81B2E08D002837
:101FB000A6D00029A4D022680C3252E8000F20F4E9
:101FC000907042E80007002FF5D12068143050E8E7
:101FD000002F22F0010240E80027002FF5D184F8FD
:101FE0004230256320680C3050E8002F22F01002A8
:101FF00040E80023002BF5D166632046FFF7D0FEB2
:10200000F8BDFFE705062BD5150629D594F8410044
:102010002128F5D1A068B0F5805F01D12069B0B169
:10202000206A411C2162216800784860E08C401ED3
:102030000004000CE084E3D12068C16821F0800135
:10204000C1602068C16841F04001C160D8E7206AE2
:102050000088C0F308004860206A801C2062E5E721
:102060004006CDD55006CBD5CA68204622F04002A6
:10207000CA6084F8413000F0EDF8C1E7BD250008E2
:1020800070B5040004D094F84100002510B106E0BA
:10209000012070BD84F84050204600F023F8242031
:1020A00084F841002068C16821F40051C1602046D5
:1020B00000F09AFB2068016921F4904101612068D9
:1020C000416921F02A0141612068C16841F4005151
:1020D000C1606564202084F8410084F84200656393
:1020E000002070BD70B586B00025064600950195AC
:1020F000029503950068224988423ED121498869AA
:1021000040F480408861886900F4804004908869C8
:1021100040F00400886188691B4C00F004000490C2
:102120004815009002200190032003906946204644
:10213000FFF722FA2015CDE90005694620460295F1
:10214000FFF71AFA124C1148C4E900058020C4E9CF
:10215000025025616561A5612046E561FFF7A6F99A
:1021600008B1FEF7A6FCF463002201212520666277
:10217000FFF764FB2520FFF753FB06B070BD00009E
:1021800000380140001002400008014058000240A1
:10219000D000002090F84230202B01D00220704760
:1021A00021B11AB10023036300F07ABB012070470C
:1021B000704770472DE9F843044690F8410098466F
:1021C00016460D46202802D00220BDE8F88385B1CE
:1021D0007EB100206064212084F84100FFF7C2FA3C
:1021E000A6848146E684A0682027B0F5805F02D0EF
:1021F00003E00120E9E7206910B12E4600250EE03A
:1022000000260CE08021204600F092FBA8B9C6B160
:1022100016F8010B21684860E08C401EE084E08CD9
:102220004B464FF00002CDF800800028EAD14FF075
:102230004001204600F07CFB40B184F8417003204F
:10224000C3E735F8020BC0F30800E3E784F84170F8
:102250000020BAE77047FEE72DE9FE43FFF782FA58
:10226000494C4FF47A7700252062616A411AA162D5
:10227000B94201D36062A570444B464E4FF4005101
:10228000B3F8000813F800C041484204BCF1010F44
:102290000ED0E3885B1C9BB2E380BB426DD3E5802C
:1022A000E389DB431B041B0CE38168D0016167E019
:1022B000E5806570A7787F1CA770A7897F1CBFB2D7
:1022C000A781032F01D3016100E002610620B7FB63
:1022D000F0F100FB1170A081B3F802082082B3F87E
:1022E000041861829846316BFEF7E6FB0746608A68
:1022F000716BFEF737FCC6E90A70044641F2883973
:10230000002F0ADDCDE90075012100234A46084669
:102310000295FEF79EFBFEF76BFCB06A00280BDA15
:102320007842CDE9000500234A461946012002956E
:10233000FEF78FFBFEF75CFCF06A00280ADDCDE9B2
:10234000004500234A46012102200295FEF781FB49
:10235000FEF74EFCF06A00280BDA6042CDE900057A
:1023600000234A46194602200295FEF772FBFEF74B
:102370003FFCB8F8001808F80150BDE8FE83026180
:10238000F5607562F9E700001000002014010020DC
:1023900000100140BC0C00202DE9F04104460078FB
:1023A0000E462C281ED1A71917F8010C5B2819D14D
:1023B000B4F801000C4D41BAA5F80218B4F80300B6
:1023C00042BAA5F8042809A000F040FBB5F80218AD
:1023D000002011B9B5F8041811B10121A15500E090
:1023E000A0557870BDE8F08114010020583A2564AA
:1023F0002C593A25640D0A000F4810B50D490160AB
:102400000321416000214FF400228160C0E90312E2
:1024100052004261017641768176C176017741773B
:10242000FEF783FE08B1FEF744FBBDE81040FEF75F
:102430005BBA00000064004060000020094808B555
:10244000416941F0010141614069002200F0010051
:10245000009002210F20FFF7F1F9BDE808400F209E
:10246000FFF7DEB9001002402DE9F04186B00024EC
:1024700024480094019402940394816941F010016E
:102480008161816901F010010491816941F02001AD
:102490008161816901F020010491816941F00401A9
:1024A0008161816901F004010491816941F00801B1
:1024B00081618069144F00F008004FF400550490CA
:1024C000002229463846FFF747F9DFF8408000220E
:1024D000C0214046FFF740F90095022601250396EA
:1024E000CDE9015469463846FFF746F8C020CDE9EA
:1024F0000005CDE9024669464046FFF73DF806B0C3
:10250000BDE8F0810010024000100140000C0140C5
:102510000C4810B50A4901604FF4E13141600021D7
:1025200081600C22C160C0E904128161C161FFF7C2
:10253000A7FD002803D0BDE81040FEF7BABA10BDD1
:102540000038014088000020FEE7FEE7014AC2E9AA
:102550000C017047BC0C0020FFF70AB930B58FB0F2
:1025600028216846FDF707FE14210AA8FDF703FE9F
:1025700001210804CDE900100024029402250491F1
:10258000CDE907504FF4E01009906846FFF764FA70
:1025900008B172B6FEE70F20CDE90A054FF480605E
:1025A000CDE90C4002210AA80E94FFF779F9002822
:1025B00001D072B6FEE70FB030BD704710B5406A6B
:1025C0000021C185C184FFF724FC10BD70B5446AA9
:1025D0002068406994F84110C0F3C01000252129FB
:1025E00004D118B1E584204600F08EF820684069D7
:1025F00094F84210C0F38010222904D118B1E58567
:10260000204600F05AF8606C40F0100060642046EC
:10261000FFF7FFFB70BD10B50146406A0968096805
:102620004FF0000289062ED4C28501680C3151E8B2
:10263000003F23F4807341E80034002CF5D1016899
:10264000143151E8003F23F0010341E80034002C2D
:10265000F5D10168143151E8003F23F0400341E80F
:102660000034002CF5D1202180F84210016B0129A3
:1026700009D101680C3151E8003F23F0100341E813
:102680000034002CF5D14263016B012902D0FFF721
:102690008FFD10BD818DFFF783FB10BD10B5406A23
:1026A00001214163016B012902D0FFF782FD10BDBA
:1026B000818D4908FFF774FB10BD01680C3151E8AA
:1026C000002F22F4907241E80023002BF5D101681D
:1026D000143151E8002F22F0010241E80023002BC1
:1026E000F5D1016B012909D101680C3151E8002FA6
:1026F00022F0100241E80023002BF5D1202180F8C0
:10270000421000210163704701680C3151E8002F2D
:1027100022F0C00241E80023002BF5D1202180F8EF
:102720004110704708B590F84210222901D00220CC
:1027300008BD82684FF480539A4201D1016921B1EA
:10274000816A9A421BD04AB10AE00268816A5268E3
:10275000C2F308020A80816A891C08E0026972B12A
:102760000268526802F07F020A70816A491C816225
:10277000C18D491E0904090CC18503D01BE0026804
:102780005268F1E70168CA6822F02002CA60016855
:10279000CA6822F48072CA6001684A6922F00102A4
:1027A0004A61202180F8421000214163026B012A16
:1027B00003D0FFF7FDFC002008BD016301680C3168
:1027C00051E8002F22F0100241E80023002BF5D140
:1027D00001680A68D20602D50A6849680091818DAD
:1027E000FFF7DEFAE7E7000070B50446006801690C
:1027F000E26821F44051114301612169A068084356
:10280000616908432168CA6841F20C639A43024334
:10281000CA6020684169A26921F440711143416195
:102820001E492068884202D1FFF7E0F801E0FFF777
:10283000CDF800EBC00101EB00126068642180005C
:10284000B2FBF0F3B3FBF1F36FF018067343B2FB86
:10285000F0F5B2FBF0F605EB8305322303EB05152B
:10286000B5FBF1F5B6FBF1F605F0F00505EB061545
:10287000B2FBF0F6B2FBF0F0B0FBF1F06FF0180233
:10288000504306EB800003EB0010B0FBF1F0216831
:1028900000F00F002844886070BD0000003801403F
:1028A00038B5816204468285002013466064222286
:1028B00084F84220E56B1B4AAA62E56B1A4AEA6279
:1028C000E56B1A4A2A63E26B50630A462168E06BA3
:1028D000091DFEF719FE2068016840680090206914
:1028E00048B120680C3050E8001F41F4807140E886
:1028F0000012002AF5D12068143050E8001F41F082
:10290000010140E80012002AF5D12068143050E897
:10291000001F41F0400140E80012002AF5D10020DC
:1029200038BD0000172600089D260008CD250008A8
:102930002DE9F843984617460D460446089E24E0C4
:10294000701C22D0FEF70EFFA0EB0800B0421AD890
:10295000CEB12068C168490717D5802D15D0402D0C
:1029600013D00168C94309070FD4016800254068E6
:1029700000902046FFF7A1FE0820606484F84050D4
:102980000120BDE8F8830320FBE72068006835EAF2
:10299000000004D00020B842D2D00020F1E701208E
:1029A000F9E70000F8B5184800680168C90629D59C
:1029B00001680026406800901348FFF7F2F91348B9
:1029C00000684068124DC0F5806080B205F58064F3
:1029D000A5F8000806554FF4806632462146284681
:1029E000FDF7B0FBB5F800182846FFF7D5FC3146D7
:1029F0002046FDF7C0FB32462146BDE8F8400248BC
:102A0000FFF7C8BBF8BD000088000020D000002000
:102A10001401002010B5FFF7C5FFBDE810400148C4
:102A2000FFF7F8B9880000200148FEF780BA0000DF
:102A30006000002010B5FDF7BBFFBDE81040014865
:102A4000FEF775BA60000020FEE700000FB4054BEA
:102A500010B503A9044A029800F0EAF810BC5DF82A
:102A600014FB0000F93400085C0000200907090E7F
:102A7000002804DB00F1E02080F80014704700F02B
:102A80000F0000F1E02080F8141D704702E008C834
:102A9000121F08C1002AFAD170477047002001E0D8
:102AA00001C1121F002AFBD1704700002DE9FF5F12
:102AB00082B00021DDE90430020DDDF840B00343AF
:102AC00018D044F61050A2F2FF3242431514119868
:102AD00001281FD0A5EB0B00401C5FEA000A4FF055
:102AE00000064E4FDFF83891B046504615D5CAF172
:102AF000000413E0119801244AA3012801D16FEAD0
:102B00000B010298119AC0E90031C0E9024206B0F7
:102B1000BDE8F09FCBF10000DFE704460021404A0A
:102B2000491842EB0450CDE9001012E0E00707D04D
:102B300032463B4640464946FDF70AFD80468946F7
:102B400032463B4610461946FDF702FD06460F4643
:102B50006410002CEAD1DDE90401DDE90023BAF1BB
:102B6000000F06DAFDF7F4FC42464B46FDF7F0FC99
:102B700005E0FDF75FFD42464B46FDF75BFD044671
:102B80000E460022284BFDF7DDFD03D84FF0FF3045
:102B9000014607E00022254B20463146FDF731FC77
:102BA000FDF7B7FD102409E0002C0ADB0A22002300
:102BB000FDF7BFFB039B30321A55641E50EA010239
:102BC000F2D1641C039AC4F111031444119A012A2E
:102BD00003D0012208430DD10AE0084304D00020AD
:102BE0004FF0110B119072E7A3EB0B056D1E0DE07A
:102BF0005B4504DD4FF0000205F1010504E003DA56
:102C00004FF00002A5F10105002AECD002981199BD
:102C1000C0E90231C0E9004579E700000000144036
:102C20000000F03F300000000000F0430000E03FF3
:102C30002DE9FF4F95B09B468946064600250FE2D9
:102C4000252877D100242746F84A0121059400E081
:102C5000044316F8013F203B01FA03F01042F7D17C
:102C600030782A2811D06FF02F033078A0F130028D
:102C7000092A16D8059A44F0020402EB820203EBFB
:102C800042021044761C0590EFE759F8042B059298
:102C9000002A03DA504244F40054059044F0020440
:102CA000761C30782E2816D116F8010F44F0040453
:102CB0002A280DD06FF02F023078A0F13003092BB5
:102CC00009D807EB870302EB4303C718761CF3E729
:102CD00059F8047B761C30786C280FD006DC4C2821
:102CE00017D068280DD06A2814D104E0742810D0B9
:102CF0007A280FD10DE044F400140AE044F4801463
:102D000001E044F440147278824202D104F5801448
:102D1000761C761C307866280BD013DC582877D0C8
:102D200009DC002875D04528F6D04628F4D047287D
:102D30001AD19DE118E0632835D0642879D0652840
:102D400012D195E1702873D008DC6728F1D069288A
:102D50006FD06E280DD06F2806D1B5E073282CD027
:102D6000752875D0782874D05A46179990476D1CED
:102D700075E1C4F30250022809D003280DD0D9F818
:102D8000001004280DD00D6009F1040967E1D9F89D
:102D90000010EA17C1E90052F6E7D9F800100D80DB
:102DA000F2E70D70F0E719F8041B8DF80010002011
:102DB0008DF80100EA46012003E059F804AB4FF01A
:102DC000FF3061074FF0000102D40DE008F101016E
:102DD0008846B9420FDA8045F8DB1AF80810002956
:102DE000F4D108E008F1010188468142FADB1AF8C3
:102DF00008100029F6D105985B46A0EB080721468C
:102E00003846179A00F094FA284400EB080507E0CA
:102E10004DE029E10DE01AF8010B5A461799904749
:102E2000B8F10108F7D25B4621463846179A13E1FC
:102E300042E00A220092C4F302524FF0000A022A32
:102E400008D059F804CB032A4FEAEC710AD00DE000
:102E500029E02AE009F1070121F00702F2E802C1A6
:102E6000914609E00FFA8CFC4FEAEC71042A03D179
:102E70004FFA8CFC4FEAEC71002907DA0A46002170
:102E8000DCF1000C61EB02012D2202E0220504D5E9
:102E90002B228DF80420012203E0E20701D020223A
:102EA000F7E7904659E00A2102E010220DE01021D8
:102EB0004FF0000A00910BE010224FF0000A44F09E
:102EC00004040827009203E008224FF0000A009251
:102ED000C4F30252022A05D059F804CB0021032A78
:102EE00008D009E009F1070121F00702F2E802C168
:102EF000914605E01FFA8CFC042A01D10CF0FF0C6E
:102F00004FF00008220728D5702806D0009B83F0D8
:102F1000100353EA0A0305D00EE040228DF8042086
:102F2000012208E05CEA010206D030228DF804207C
:102F30008DF8050002229046009B83F0080353EAB7
:102F40000A030AD15CEA010201D1620705D53022E9
:102F50008DF804204FF001087F1E582804D034A0BB
:102F600003900EA802900DE036A0F9E753466046A4
:102F7000009AFDF7DEF984460398825C0298401EB1
:102F8000029002705CEA0100F0D1029806A9081ACA
:102F900000F1200A600702D524F4803400E0012704
:102FA000574502DDA7EB0A0000E0002000EB0A0114
:102FB000009005984144401A0590E00306D45B4612
:102FC0002146179A059800F0B3F90544002706E05A
:102FD00001A85A46C05D179990476D1C7F1C474554
:102FE000F6DBE0030CD55B462146179A059800F006
:102FF0009FF9054404E030205A46179990476D1C0C
:103000000099481E00900029F5DC08E0029802991A
:103010005A460078491C0291179990476D1CBAF1E5
:103020000001AAF1010AF1DC65E1000009280100B4
:10303000303132333435363738396162636465662E
:1030400000000000303132333435363738394142F0
:10305000434445460000000000F058F90544761C42
:10306000307800287FF4ECAD19B02846BDE8F08F29
:10307000620700D4062709F1070222F0070CFCE8DA
:103080000223E14603F000485FEA080C02D00FF289
:10309000702C0DE05FEA045C02D50FF2682C07E0AB
:1030A0005FEAC47C02D00FF2602C01E0AFF2700C3A
:1030B0004FF0FF3823F00043CDF850C065280CD006
:1030C00006DC452809D046281DD047283DD13DE0E3
:1030D000662818D067287ED138E00021112F01DB47
:1030E000112000E0781CCDE9000106A90EA8FFF729
:1030F000DDFCDDE90F010E9A03910021009207F13A
:10310000010A04914DE04FF000400097CDE9011015
:1031100006A90EA8FFF7CAFCDDE90F0203920E9B79
:1031200011990022DDF80CA00093049211B9791CCA
:1031300000EB010AB7EB0A0004D4C0F1FF3007F13D
:10314000010A0490AAEB0700019044E0012F00DA85
:1031500001270021112F01DD112000E03846CDE9C3
:10316000000106A90EA8FFF7A1FCDDE90F010E9AE8
:103170000391002104910092BA4621070CD40399CF
:10318000514500DA8A46BAF1010F05DD009AAAF12D
:103190000101515C302908D0B84202DA10F1040F65
:1031A00006DA0121CDE9011015E0AAF10101E9E7F4
:1031B000002805DC049901440491AAEB000102E017
:1031C000411C514500DD8A460499401A401C01907B
:1031D0004FF000400290200704D40198504501DBD5
:1031E000CDF8048000208DF84F0002980DF14F07B4
:1031F000B0F1004F25D02B200E9002984FF002081E
:1032000000280CDA404202902D200E9007E00A219F
:103210000298FDF778F83031029007F8011DB8F1F7
:103220000001A8F10108F2DC02980028EFD1791E14
:103230000E980870307800F0200040F0450007F844
:10324000020D12A8C01B00F107081498007800B105
:10325000012000EB0A01019801EBE071059841445F
:10326000401A401E0590E00306D45B462146179A9B
:10327000059800F05DF805441498007818B15A4696
:10328000179990476D1CE00324D55B462146179A99
:10329000059800F04DF805441CE00498002807DB71
:1032A000DDE90301884203DD0098405C179901E0E5
:1032B000179930205A469047049805F10105401CA3
:1032C00004900198401E019004D12E205A4617996F
:1032D00090476D1CBAF10001AAF1010ADDDC05E09E
:1032E00017F8010B5A46179990476D1CB8F1000169
:1032F000A8F10108F4DC5B462146179A0598ABE675
:103300002D0000002B000000200000002DE9F041FE
:10331000044600251E461746880404D405E03946B5
:103320002020B0476D1C641EF9D52846BDE8F08109
:103330002DE9F041044600251E469046C80301D5FC
:10334000302700E02027880404D505E041463846B0
:10335000B0476D1C641EF9D52846BDE8F081000019
:1033600070B5164C0D46014694F84701052801D268
:10337000402D01D9002070BD94F846012A4600EB8B
:10338000801020440646FCF7DDFE86F8405094F895
:1033900046010521401CB0FBF1F201FB120084F84C
:1033A000460194F84701401C84F84701044890F80E
:1033B000420108B900F010F8012070BD1C0900207E
:1033C000640A002010B5FFF7CBFF002803D1BDE849
:1033D0001040FDF76EBB10BD2DE9F84331480025C4
:1033E00000F5A47490F8471191B190F845110027A9
:1033F00001EB81110B18B94693F8400084F8405155
:10340000801EC6B284F84151012084F8420131E0A7
:1034100084F84251BDE8F8831A7804EB401149EA78
:10342000022048600420C1E90205082E01D232467C
:1034300000E00722501C08615878087600200AE056
:1034400007EB000C9C4401EB00089CF802C0401CF8
:1034500088F819C0C0B29042F2D3B01AC6B2B818F8
:10346000C7B209F1010000F0FF0994F84001401CC7
:1034700084F840011EB194F840010A28CCD30A48D0
:10348000FDF73FFD40B1094A6B46A2F1180106481D
:10349000FDF7D6FB0028BDD084F84251FDF709FBAB
:1034A000B8E700001C090020600000207C0A002012
:1034B00070B5054600244FF47A7603E0304600F0FC
:1034C00005F8641CAC42F9D370BD000030B5074A62
:1034D0005368074C074D00212468B4FBF5F44443BE
:1034E00001E05068C11AA142FBD330BD001000E0DA
:1034F0000C00002040420F0013B54FF6FF7301226D
:1035000069460248FEF756FE00981CBD8800002060
:10351000FEF736F9FFF722F8FEF7A6FFFEF78EFF5B
:10352000FEF7F6FFFEF768FF084C4FF400552561E3
:1035300000F00EF8F0214FF4C870FFF707F825618E
:10354000FEF78AFE0120FFF7B3FFF9E70010014004
:1035500010B5FDF76BFA00F013F807480068C16872
:1035600041F01001C160BDE810404FF48062034992
:103570000148FEF70FBE000088000020140500205F
:1035800070B510484FF080410024C0E900148460F9
:10359000C4608462C0E9061404624462C4620A48DA
:1035A0000D1529460646FCF7E6FD29463046FCF790
:1035B000E2FD0648A0F80048A0F80248A0F8044838
:1035C00070BD0000BC0C0020140500201401002078
:1035D000010202030405060708090A0B0C0D0E0F71
:1035E00010100000000000000000010203040607A4
:1035F0000809000000000102030400001C36000856
:1036000000000020600000008C2A00087C360008C2
:1036100060000020981000009C2A000801000000B3
:10362000100000000000000000127A0000000000FE
:10363000000000000000000000000000000000008A
:10364000000000000000000000000000000000007A
:10365000000000000000000000000000000000006A
:10366000000000000000000000000000000000005A
:0C3670000000000000000000000000004E
:04000005080000ED02
:00000001FF
